{
  "_format": "hh-sol-artifact-1",
  "contractName": "Escrow",
  "sourceName": "contracts/Escrow.sol",
  "abi": [
    {
      "inputs": [
        {
          "internalType": "address",
          "name": "_nftAddress",
          "type": "address"
        },
        {
          "internalType": "address",
          "name": "_inspector",
          "type": "address"
        },
        {
          "internalType": "address",
          "name": "_lender",
          "type": "address"
        },
        {
          "internalType": "address",
          "name": "_government",
          "type": "address"
        }
      ],
      "stateMutability": "nonpayable",
      "type": "constructor"
    },
    {
      "anonymous": false,
      "inputs": [
        {
          "indexed": true,
          "internalType": "uint256",
          "name": "nftID",
          "type": "uint256"
        },
        {
          "indexed": true,
          "internalType": "address",
          "name": "buyer",
          "type": "address"
        },
        {
          "indexed": false,
          "internalType": "uint256",
          "name": "amount",
          "type": "uint256"
        },
        {
          "indexed": false,
          "internalType": "uint256",
          "name": "timestamp",
          "type": "uint256"
        }
      ],
      "name": "EarnestDeposited",
      "type": "event"
    },
    {
      "anonymous": false,
      "inputs": [
        {
          "indexed": true,
          "internalType": "address",
          "name": "user",
          "type": "address"
        }
      ],
      "name": "GovernmentRoleGranted",
      "type": "event"
    },
    {
      "anonymous": false,
      "inputs": [
        {
          "indexed": true,
          "internalType": "address",
          "name": "user",
          "type": "address"
        }
      ],
      "name": "GovernmentRoleRevoked",
      "type": "event"
    },
    {
      "anonymous": false,
      "inputs": [
        {
          "indexed": true,
          "internalType": "uint256",
          "name": "nftID",
          "type": "uint256"
        },
        {
          "indexed": true,
          "internalType": "address",
          "name": "inspector",
          "type": "address"
        },
        {
          "indexed": false,
          "internalType": "bool",
          "name": "passed",
          "type": "bool"
        },
        {
          "indexed": false,
          "internalType": "uint256",
          "name": "timestamp",
          "type": "uint256"
        }
      ],
      "name": "InspectionStatusUpdated",
      "type": "event"
    },
    {
      "anonymous": false,
      "inputs": [
        {
          "indexed": true,
          "internalType": "address",
          "name": "user",
          "type": "address"
        }
      ],
      "name": "InspectorRoleGranted",
      "type": "event"
    },
    {
      "anonymous": false,
      "inputs": [
        {
          "indexed": true,
          "internalType": "address",
          "name": "user",
          "type": "address"
        }
      ],
      "name": "InspectorRoleRevoked",
      "type": "event"
    },
    {
      "anonymous": false,
      "inputs": [
        {
          "indexed": true,
          "internalType": "address",
          "name": "user",
          "type": "address"
        }
      ],
      "name": "LenderRoleGranted",
      "type": "event"
    },
    {
      "anonymous": false,
      "inputs": [
        {
          "indexed": true,
          "internalType": "address",
          "name": "user",
          "type": "address"
        }
      ],
      "name": "LenderRoleRevoked",
      "type": "event"
    },
    {
      "anonymous": false,
      "inputs": [
        {
          "indexed": true,
          "internalType": "address",
          "name": "oldOwner",
          "type": "address"
        },
        {
          "indexed": true,
          "internalType": "address",
          "name": "newOwner",
          "type": "address"
        }
      ],
      "name": "OwnershipTransferred",
      "type": "event"
    },
    {
      "anonymous": false,
      "inputs": [
        {
          "indexed": true,
          "internalType": "uint256",
          "name": "nftID",
          "type": "uint256"
        },
        {
          "indexed": true,
          "internalType": "address",
          "name": "seller",
          "type": "address"
        },
        {
          "indexed": false,
          "internalType": "uint256",
          "name": "purchasePrice",
          "type": "uint256"
        },
        {
          "indexed": false,
          "internalType": "uint256",
          "name": "escrowAmount",
          "type": "uint256"
        },
        {
          "indexed": false,
          "internalType": "uint256",
          "name": "timestamp",
          "type": "uint256"
        }
      ],
      "name": "PropertyListed",
      "type": "event"
    },
    {
      "anonymous": false,
      "inputs": [
        {
          "indexed": true,
          "internalType": "uint256",
          "name": "nftID",
          "type": "uint256"
        },
        {
          "indexed": true,
          "internalType": "address",
          "name": "government",
          "type": "address"
        },
        {
          "indexed": false,
          "internalType": "uint256",
          "name": "timestamp",
          "type": "uint256"
        }
      ],
      "name": "PropertyVerified",
      "type": "event"
    },
    {
      "anonymous": false,
      "inputs": [
        {
          "indexed": true,
          "internalType": "uint256",
          "name": "nftID",
          "type": "uint256"
        },
        {
          "indexed": true,
          "internalType": "address",
          "name": "approver",
          "type": "address"
        },
        {
          "indexed": false,
          "internalType": "bool",
          "name": "lenderApproved",
          "type": "bool"
        },
        {
          "indexed": false,
          "internalType": "bool",
          "name": "sellerApproved",
          "type": "bool"
        },
        {
          "indexed": false,
          "internalType": "uint256",
          "name": "timestamp",
          "type": "uint256"
        }
      ],
      "name": "SaleApprovalUpdated",
      "type": "event"
    },
    {
      "anonymous": false,
      "inputs": [
        {
          "indexed": true,
          "internalType": "uint256",
          "name": "nftID",
          "type": "uint256"
        },
        {
          "indexed": true,
          "internalType": "address",
          "name": "seller",
          "type": "address"
        },
        {
          "indexed": true,
          "internalType": "address",
          "name": "buyer",
          "type": "address"
        },
        {
          "indexed": false,
          "internalType": "uint256",
          "name": "amount",
          "type": "uint256"
        },
        {
          "indexed": false,
          "internalType": "uint256",
          "name": "timestamp",
          "type": "uint256"
        }
      ],
      "name": "SaleFinalized",
      "type": "event"
    },
    {
      "inputs": [
        {
          "internalType": "uint256",
          "name": "_nftID",
          "type": "uint256"
        }
      ],
      "name": "approveSale",
      "outputs": [],
      "stateMutability": "nonpayable",
      "type": "function"
    },
    {
      "inputs": [
        {
          "internalType": "uint256",
          "name": "_nftID",
          "type": "uint256"
        }
      ],
      "name": "depositEarnest",
      "outputs": [],
      "stateMutability": "payable",
      "type": "function"
    },
    {
      "inputs": [
        {
          "internalType": "uint256",
          "name": "_nftID",
          "type": "uint256"
        }
      ],
      "name": "finalizeSale",
      "outputs": [],
      "stateMutability": "nonpayable",
      "type": "function"
    },
    {
      "inputs": [
        {
          "internalType": "address",
          "name": "",
          "type": "address"
        }
      ],
      "name": "governments",
      "outputs": [
        {
          "internalType": "bool",
          "name": "",
          "type": "bool"
        }
      ],
      "stateMutability": "view",
      "type": "function"
    },
    {
      "inputs": [
        {
          "internalType": "address",
          "name": "user",
          "type": "address"
        }
      ],
      "name": "grantAllRoles",
      "outputs": [],
      "stateMutability": "nonpayable",
      "type": "function"
    },
    {
      "inputs": [
        {
          "internalType": "address",
          "name": "user",
          "type": "address"
        }
      ],
      "name": "grantGovernment",
      "outputs": [],
      "stateMutability": "nonpayable",
      "type": "function"
    },
    {
      "inputs": [
        {
          "internalType": "address",
          "name": "user",
          "type": "address"
        }
      ],
      "name": "grantInspector",
      "outputs": [],
      "stateMutability": "nonpayable",
      "type": "function"
    },
    {
      "inputs": [
        {
          "internalType": "address",
          "name": "user",
          "type": "address"
        }
      ],
      "name": "grantLender",
      "outputs": [],
      "stateMutability": "nonpayable",
      "type": "function"
    },
    {
      "inputs": [
        {
          "internalType": "address",
          "name": "user",
          "type": "address"
        }
      ],
      "name": "hasAllRoles",
      "outputs": [
        {
          "internalType": "bool",
          "name": "",
          "type": "bool"
        }
      ],
      "stateMutability": "view",
      "type": "function"
    },
    {
      "inputs": [
        {
          "internalType": "address",
          "name": "",
          "type": "address"
        }
      ],
      "name": "inspectors",
      "outputs": [
        {
          "internalType": "bool",
          "name": "",
          "type": "bool"
        }
      ],
      "stateMutability": "view",
      "type": "function"
    },
    {
      "inputs": [
        {
          "internalType": "address",
          "name": "",
          "type": "address"
        }
      ],
      "name": "lenders",
      "outputs": [
        {
          "internalType": "bool",
          "name": "",
          "type": "bool"
        }
      ],
      "stateMutability": "view",
      "type": "function"
    },
    {
      "inputs": [
        {
          "internalType": "uint256",
          "name": "_nftID",
          "type": "uint256"
        },
        {
          "internalType": "uint256",
          "name": "_purchasePrice",
          "type": "uint256"
        },
        {
          "internalType": "uint256",
          "name": "_escrowAmount",
          "type": "uint256"
        }
      ],
      "name": "list",
      "outputs": [],
      "stateMutability": "nonpayable",
      "type": "function"
    },
    {
      "inputs": [
        {
          "internalType": "uint256",
          "name": "",
          "type": "uint256"
        }
      ],
      "name": "listings",
      "outputs": [
        {
          "internalType": "bool",
          "name": "isListed",
          "type": "bool"
        },
        {
          "internalType": "address payable",
          "name": "seller",
          "type": "address"
        },
        {
          "internalType": "address payable",
          "name": "buyer",
          "type": "address"
        },
        {
          "internalType": "uint256",
          "name": "purchasePrice",
          "type": "uint256"
        },
        {
          "internalType": "uint256",
          "name": "escrowAmount",
          "type": "uint256"
        },
        {
          "internalType": "bool",
          "name": "inspectionPassed",
          "type": "bool"
        },
        {
          "internalType": "bool",
          "name": "lenderApproved",
          "type": "bool"
        },
        {
          "internalType": "bool",
          "name": "governmentVerified",
          "type": "bool"
        },
        {
          "internalType": "bool",
          "name": "sellerApproved",
          "type": "bool"
        }
      ],
      "stateMutability": "view",
      "type": "function"
    },
    {
      "inputs": [],
      "name": "nftAddress",
      "outputs": [
        {
          "internalType": "address",
          "name": "",
          "type": "address"
        }
      ],
      "stateMutability": "view",
      "type": "function"
    },
    {
      "inputs": [],
      "name": "owner",
      "outputs": [
        {
          "internalType": "address",
          "name": "",
          "type": "address"
        }
      ],
      "stateMutability": "view",
      "type": "function"
    },
    {
      "inputs": [
        {
          "internalType": "uint256",
          "name": "amount",
          "type": "uint256"
        }
      ],
      "name": "ownerWithdraw",
      "outputs": [],
      "stateMutability": "nonpayable",
      "type": "function"
    },
    {
      "inputs": [
        {
          "internalType": "address",
          "name": "user",
          "type": "address"
        }
      ],
      "name": "revokeAllRoles",
      "outputs": [],
      "stateMutability": "nonpayable",
      "type": "function"
    },
    {
      "inputs": [
        {
          "internalType": "address",
          "name": "user",
          "type": "address"
        }
      ],
      "name": "revokeGovernment",
      "outputs": [],
      "stateMutability": "nonpayable",
      "type": "function"
    },
    {
      "inputs": [
        {
          "internalType": "address",
          "name": "user",
          "type": "address"
        }
      ],
      "name": "revokeInspector",
      "outputs": [],
      "stateMutability": "nonpayable",
      "type": "function"
    },
    {
      "inputs": [
        {
          "internalType": "address",
          "name": "user",
          "type": "address"
        }
      ],
      "name": "revokeLender",
      "outputs": [],
      "stateMutability": "nonpayable",
      "type": "function"
    },
    {
      "inputs": [
        {
          "internalType": "address",
          "name": "newOwner",
          "type": "address"
        }
      ],
      "name": "transferOwnership",
      "outputs": [],
      "stateMutability": "nonpayable",
      "type": "function"
    },
    {
      "inputs": [
        {
          "internalType": "uint256",
          "name": "_nftID",
          "type": "uint256"
        },
        {
          "internalType": "bool",
          "name": "_passed",
          "type": "bool"
        }
      ],
      "name": "updateInspectionStatus",
      "outputs": [],
      "stateMutability": "nonpayable",
      "type": "function"
    },
    {
      "inputs": [
        {
          "internalType": "uint256",
          "name": "_nftID",
          "type": "uint256"
        }
      ],
      "name": "verifyProperty",
      "outputs": [],
      "stateMutability": "nonpayable",
      "type": "function"
    },
    {
      "stateMutability": "payable",
      "type": "receive"
    }
  ],
  "bytecode": "0x608060405234801561001057600080fd5b50604051614a5b380380614a5b833981810160405281019061003291906106d7565b600073ffffffffffffffffffffffffffffffffffffffff168473ffffffffffffffffffffffffffffffffffffffff16036100a1576040517f08c379a00000000000000000000000000000000000000000000000000000000081526004016100989061079b565b60405180910390fd5b336000806101000a81548173ffffffffffffffffffffffffffffffffffffffff021916908373ffffffffffffffffffffffffffffffffffffffff16021790555083600160006101000a81548173ffffffffffffffffffffffffffffffffffffffff021916908373ffffffffffffffffffffffffffffffffffffffff1602179055506001600260003373ffffffffffffffffffffffffffffffffffffffff1673ffffffffffffffffffffffffffffffffffffffff16815260200190815260200160002060006101000a81548160ff0219169083151502179055506001600360003373ffffffffffffffffffffffffffffffffffffffff1673ffffffffffffffffffffffffffffffffffffffff16815260200190815260200160002060006101000a81548160ff0219169083151502179055506001600460003373ffffffffffffffffffffffffffffffffffffffff1673ffffffffffffffffffffffffffffffffffffffff16815260200190815260200160002060006101000a81548160ff0219169083151502179055503373ffffffffffffffffffffffffffffffffffffffff167ff8cb78fd48c1bddb55d61c3a2194065c4da452df7907042a74a44d926875b7d760405160405180910390a23373ffffffffffffffffffffffffffffffffffffffff167ff920c05bb52af23500f13fcb4e331b2511380af54f71a667ab40f347db49f2cb60405160405180910390a23373ffffffffffffffffffffffffffffffffffffffff167f06b7e73b864eee3b44819c423de068a65e4ab0266e23e5b6dd94442347d55cad60405160405180910390a2600073ffffffffffffffffffffffffffffffffffffffff168373ffffffffffffffffffffffffffffffffffffffff161415801561037a5750600260008473ffffffffffffffffffffffffffffffffffffffff1673ffffffffffffffffffffffffffffffffffffffff16815260200190815260200160002060009054906101000a900460ff16155b1561041b576001600260008573ffffffffffffffffffffffffffffffffffffffff1673ffffffffffffffffffffffffffffffffffffffff16815260200190815260200160002060006101000a81548160ff0219169083151502179055508273ffffffffffffffffffffffffffffffffffffffff167ff8cb78fd48c1bddb55d61c3a2194065c4da452df7907042a74a44d926875b7d760405160405180910390a25b600073ffffffffffffffffffffffffffffffffffffffff168273ffffffffffffffffffffffffffffffffffffffff16141580156104a25750600360008373ffffffffffffffffffffffffffffffffffffffff1673ffffffffffffffffffffffffffffffffffffffff16815260200190815260200160002060009054906101000a900460ff16155b15610543576001600360008473ffffffffffffffffffffffffffffffffffffffff1673ffffffffffffffffffffffffffffffffffffffff16815260200190815260200160002060006101000a81548160ff0219169083151502179055508173ffffffffffffffffffffffffffffffffffffffff167ff920c05bb52af23500f13fcb4e331b2511380af54f71a667ab40f347db49f2cb60405160405180910390a25b600073ffffffffffffffffffffffffffffffffffffffff168173ffffffffffffffffffffffffffffffffffffffff16141580156105ca5750600460008273ffffffffffffffffffffffffffffffffffffffff1673ffffffffffffffffffffffffffffffffffffffff16815260200190815260200160002060009054906101000a900460ff16155b1561066b576001600460008373ffffffffffffffffffffffffffffffffffffffff1673ffffffffffffffffffffffffffffffffffffffff16815260200190815260200160002060006101000a81548160ff0219169083151502179055508073ffffffffffffffffffffffffffffffffffffffff167f06b7e73b864eee3b44819c423de068a65e4ab0266e23e5b6dd94442347d55cad60405160405180910390a25b505050506107bb565b600080fd5b600073ffffffffffffffffffffffffffffffffffffffff82169050919050565b60006106a482610679565b9050919050565b6106b481610699565b81146106bf57600080fd5b50565b6000815190506106d1816106ab565b92915050565b600080600080608085870312156106f1576106f0610674565b5b60006106ff878288016106c2565b9450506020610710878288016106c2565b9350506040610721878288016106c2565b9250506060610732878288016106c2565b91505092959194509250565b600082825260208201905092915050565b7f496e76616c6964204e4654206164647265737300000000000000000000000000600082015250565b600061078560138361073e565b91506107908261074f565b602082019050919050565b600060208201905081810360008301526107b481610778565b9050919050565b614291806107ca6000396000f3fe6080604052600436106101445760003560e01c80635bf8633a116100b6578063aa9293801161006f578063aa92938014610449578063d5dd165714610472578063de74e57b146104af578063e740f770146104f4578063f0993d4f14610510578063f2fde38b146105395761014b565b80635bf8633a1461033b578063889500f3146103665780638da5cb5b1461038f5780639d0e5fd6146103ba578063a0573536146103e3578063a592b26b1461040c5761014b565b8063333fbd4a11610108578063333fbd4a1461024557806333f707d11461026e578063356fb555146102975780634212a8ae146102c057806342f28cd2146102e9578063456f19fc146103125761014b565b806311cb808814610150578063148471d11461017957806314a72feb146101b657806319aeb490146101df57806328fd10d7146102085761014b565b3661014b57005b600080fd5b34801561015c57600080fd5b506101776004803603810190610172919061325c565b610562565b005b34801561018557600080fd5b506101a0600480360381019061019b919061325c565b6106fd565b6040516101ad91906132a4565b60405180910390f35b3480156101c257600080fd5b506101dd60048036038101906101d891906132f5565b61071d565b005b3480156101eb57600080fd5b5061020660048036038101906102019190613322565b6109ba565b005b34801561021457600080fd5b5061022f600480360381019061022a919061325c565b610f88565b60405161023c91906132a4565b60405180910390f35b34801561025157600080fd5b5061026c6004803603810190610267919061325c565b610fa8565b005b34801561027a57600080fd5b50610295600480360381019061029091906132f5565b611143565b005b3480156102a357600080fd5b506102be60048036038101906102b9919061325c565b6112e5565b005b3480156102cc57600080fd5b506102e760048036038101906102e291906132f5565b611480565b005b3480156102f557600080fd5b50610310600480360381019061030b919061325c565b611677565b005b34801561031e57600080fd5b506103396004803603810190610334919061325c565b611812565b005b34801561034757600080fd5b506103506119ad565b60405161035d9190613384565b60405180910390f35b34801561037257600080fd5b5061038d6004803603810190610388919061325c565b6119d3565b005b34801561039b57600080fd5b506103a4611b6e565b6040516103b19190613384565b60405180910390f35b3480156103c657600080fd5b506103e160048036038101906103dc91906133cb565b611b92565b005b3480156103ef57600080fd5b5061040a6004803603810190610405919061325c565b611d8b565b005b34801561041857600080fd5b50610433600480360381019061042e919061325c565b612152565b60405161044091906132a4565b60405180910390f35b34801561045557600080fd5b50610470600480360381019061046b91906132f5565b612252565b005b34801561047e57600080fd5b506104996004803603810190610494919061325c565b612880565b6040516104a691906132a4565b60405180910390f35b3480156104bb57600080fd5b506104d660048036038101906104d191906132f5565b6128a0565b6040516104eb9998979695949392919061343b565b60405180910390f35b61050e600480360381019061050991906132f5565b61296f565b005b34801561051c57600080fd5b506105376004803603810190610532919061325c565b612c6e565b005b34801561054557600080fd5b50610560600480360381019061055b919061325c565b613038565b005b60008054906101000a900473ffffffffffffffffffffffffffffffffffffffff1673ffffffffffffffffffffffffffffffffffffffff163373ffffffffffffffffffffffffffffffffffffffff16146105f0576040517f08c379a00000000000000000000000000000000000000000000000000000000081526004016105e790613525565b60405180910390fd5b600073ffffffffffffffffffffffffffffffffffffffff168173ffffffffffffffffffffffffffffffffffffffff160361065f576040517f08c379a000000000000000000000000000000000000000000000000000000000815260040161065690613591565b60405180910390fd5b6001600360008373ffffffffffffffffffffffffffffffffffffffff1673ffffffffffffffffffffffffffffffffffffffff16815260200190815260200160002060006101000a81548160ff0219169083151502179055508073ffffffffffffffffffffffffffffffffffffffff167ff920c05bb52af23500f13fcb4e331b2511380af54f71a667ab40f347db49f2cb60405160405180910390a250565b60046020528060005260406000206000915054906101000a900460ff1681565b60006005600083815260200190815260200160002090508060000160009054906101000a900460ff16610785576040517f08c379a000000000000000000000000000000000000000000000000000000000815260040161077c906135fd565b60405180910390fd5b600073ffffffffffffffffffffffffffffffffffffffff168160000160019054906101000a900473ffffffffffffffffffffffffffffffffffffffff1673ffffffffffffffffffffffffffffffffffffffff1603610818576040517f08c379a000000000000000000000000000000000000000000000000000000000815260040161080f90613669565b60405180910390fd5b600360003373ffffffffffffffffffffffffffffffffffffffff1673ffffffffffffffffffffffffffffffffffffffff16815260200190815260200160002060009054906101000a900460ff161561088c5760018160040160016101000a81548160ff021916908315150217905550610941565b8060000160019054906101000a900473ffffffffffffffffffffffffffffffffffffffff1673ffffffffffffffffffffffffffffffffffffffff163373ffffffffffffffffffffffffffffffffffffffff16036109055760018160040160036101000a81548160ff021916908315150217905550610940565b6040517f08c379a0000000000000000000000000000000000000000000000000000000008152600401610937906136d5565b60405180910390fd5b5b3373ffffffffffffffffffffffffffffffffffffffff16827ff3885704728ba79a12d8fd32b89935eaaf93eac000e804e7ac9b533bc87e5b208360040160019054906101000a900460ff168460040160039054906101000a900460ff16426040516109ae939291906136f5565b60405180910390a35050565b600082116109fd576040517f08c379a00000000000000000000000000000000000000000000000000000000081526004016109f490613778565b60405180910390fd5b60008111610a40576040517f08c379a0000000000000000000000000000000000000000000000000000000008152600401610a379061380a565b60405180910390fd5b6005600084815260200190815260200160002060000160009054906101000a900460ff1615610aa4576040517f08c379a0000000000000000000000000000000000000000000000000000000008152600401610a9b90613876565b60405180910390fd5b3373ffffffffffffffffffffffffffffffffffffffff16600160009054906101000a900473ffffffffffffffffffffffffffffffffffffffff1673ffffffffffffffffffffffffffffffffffffffff16636352211e856040518263ffffffff1660e01b8152600401610b169190613896565b602060405180830381865afa158015610b33573d6000803e3d6000fd5b505050506040513d601f19601f82011682018060405250810190610b5791906138c6565b73ffffffffffffffffffffffffffffffffffffffff1614610bad576040517f08c379a0000000000000000000000000000000000000000000000000000000008152600401610ba49061393f565b60405180910390fd5b3073ffffffffffffffffffffffffffffffffffffffff16600160009054906101000a900473ffffffffffffffffffffffffffffffffffffffff1673ffffffffffffffffffffffffffffffffffffffff1663081812fc856040518263ffffffff1660e01b8152600401610c1f9190613896565b602060405180830381865afa158015610c3c573d6000803e3d6000fd5b505050506040513d601f19601f82011682018060405250810190610c6091906138c6565b73ffffffffffffffffffffffffffffffffffffffff161480610d1c5750600160009054906101000a900473ffffffffffffffffffffffffffffffffffffffff1673ffffffffffffffffffffffffffffffffffffffff1663e985e9c533306040518363ffffffff1660e01b8152600401610cda92919061395f565b602060405180830381865afa158015610cf7573d6000803e3d6000fd5b505050506040513d601f19601f82011682018060405250810190610d1b919061399d565b5b610d5b576040517f08c379a0000000000000000000000000000000000000000000000000000000008152600401610d5290613a16565b60405180910390fd5b6040518061012001604052806001151581526020013373ffffffffffffffffffffffffffffffffffffffff168152602001600073ffffffffffffffffffffffffffffffffffffffff168152602001838152602001828152602001600015158152602001600015158152602001600015158152602001600015158152506005600085815260200190815260200160002060008201518160000160006101000a81548160ff02191690831515021790555060208201518160000160016101000a81548173ffffffffffffffffffffffffffffffffffffffff021916908373ffffffffffffffffffffffffffffffffffffffff16021790555060408201518160010160006101000a81548173ffffffffffffffffffffffffffffffffffffffff021916908373ffffffffffffffffffffffffffffffffffffffff160217905550606082015181600201556080820151816003015560a08201518160040160006101000a81548160ff02191690831515021790555060c08201518160040160016101000a81548160ff02191690831515021790555060e08201518160040160026101000a81548160ff0219169083151502179055506101008201518160040160036101000a81548160ff0219169083151502179055509050503373ffffffffffffffffffffffffffffffffffffffff16837febe5022e5e01629ce50ec667b3f3333ec2ad62233a476b8c78afbc36fd931d74848442604051610f7b93929190613a36565b60405180910390a3505050565b60036020528060005260406000206000915054906101000a900460ff1681565b60008054906101000a900473ffffffffffffffffffffffffffffffffffffffff1673ffffffffffffffffffffffffffffffffffffffff163373ffffffffffffffffffffffffffffffffffffffff1614611036576040517f08c379a000000000000000000000000000000000000000000000000000000000815260040161102d90613525565b60405180910390fd5b600073ffffffffffffffffffffffffffffffffffffffff168173ffffffffffffffffffffffffffffffffffffffff16036110a5576040517f08c379a000000000000000000000000000000000000000000000000000000000815260040161109c90613591565b60405180910390fd5b6001600460008373ffffffffffffffffffffffffffffffffffffffff1673ffffffffffffffffffffffffffffffffffffffff16815260200190815260200160002060006101000a81548160ff0219169083151502179055508073ffffffffffffffffffffffffffffffffffffffff167f06b7e73b864eee3b44819c423de068a65e4ab0266e23e5b6dd94442347d55cad60405160405180910390a250565b60008054906101000a900473ffffffffffffffffffffffffffffffffffffffff1673ffffffffffffffffffffffffffffffffffffffff163373ffffffffffffffffffffffffffffffffffffffff16146111d1576040517f08c379a00000000000000000000000000000000000000000000000000000000081526004016111c890613525565b60405180910390fd5b47811115611214576040517f08c379a000000000000000000000000000000000000000000000000000000000815260040161120b90613ab9565b60405180910390fd5b60008060009054906101000a900473ffffffffffffffffffffffffffffffffffffffff1673ffffffffffffffffffffffffffffffffffffffff168260405161125b90613b0a565b60006040518083038185875af1925050503d8060008114611298576040519150601f19603f3d011682016040523d82523d6000602084013e61129d565b606091505b50509050806112e1576040517f08c379a00000000000000000000000000000000000000000000000000000000081526004016112d890613b6b565b60405180910390fd5b5050565b60008054906101000a900473ffffffffffffffffffffffffffffffffffffffff1673ffffffffffffffffffffffffffffffffffffffff163373ffffffffffffffffffffffffffffffffffffffff1614611373576040517f08c379a000000000000000000000000000000000000000000000000000000000815260040161136a90613525565b60405180910390fd5b600073ffffffffffffffffffffffffffffffffffffffff168173ffffffffffffffffffffffffffffffffffffffff16036113e2576040517f08c379a00000000000000000000000000000000000000000000000000000000081526004016113d990613591565b60405180910390fd5b6000600460008373ffffffffffffffffffffffffffffffffffffffff1673ffffffffffffffffffffffffffffffffffffffff16815260200190815260200160002060006101000a81548160ff0219169083151502179055508073ffffffffffffffffffffffffffffffffffffffff167f356c02df5f27e0e70ccc1fe4d9fdce0ac870948ebc6b824e6169812b4ec6c61660405160405180910390a250565b600460003373ffffffffffffffffffffffffffffffffffffffff1673ffffffffffffffffffffffffffffffffffffffff16815260200190815260200160002060009054906101000a900460ff1661150c576040517f08c379a000000000000000000000000000000000000000000000000000000000815260040161150390613bd7565b60405180910390fd5b60006005600083815260200190815260200160002090508060000160009054906101000a900460ff16611574576040517f08c379a000000000000000000000000000000000000000000000000000000000815260040161156b906135fd565b60405180910390fd5b600073ffffffffffffffffffffffffffffffffffffffff168160000160019054906101000a900473ffffffffffffffffffffffffffffffffffffffff1673ffffffffffffffffffffffffffffffffffffffff1603611607576040517f08c379a00000000000000000000000000000000000000000000000000000000081526004016115fe90613669565b60405180910390fd5b60018160040160026101000a81548160ff0219169083151502179055503373ffffffffffffffffffffffffffffffffffffffff16827f4fdf86fb949d94ea64686b0c53072d1e62e2b9205a072cd65dbacfe8f7556dcf4260405161166b9190613896565b60405180910390a35050565b60008054906101000a900473ffffffffffffffffffffffffffffffffffffffff1673ffffffffffffffffffffffffffffffffffffffff163373ffffffffffffffffffffffffffffffffffffffff1614611705576040517f08c379a00000000000000000000000000000000000000000000000000000000081526004016116fc90613525565b60405180910390fd5b600073ffffffffffffffffffffffffffffffffffffffff168173ffffffffffffffffffffffffffffffffffffffff1603611774576040517f08c379a000000000000000000000000000000000000000000000000000000000815260040161176b90613591565b60405180910390fd5b6000600260008373ffffffffffffffffffffffffffffffffffffffff1673ffffffffffffffffffffffffffffffffffffffff16815260200190815260200160002060006101000a81548160ff0219169083151502179055508073ffffffffffffffffffffffffffffffffffffffff167feacbe29d685a95ba4532dcd8a317a66ceb8c4f0212067336226f5c06a2303ae560405160405180910390a250565b60008054906101000a900473ffffffffffffffffffffffffffffffffffffffff1673ffffffffffffffffffffffffffffffffffffffff163373ffffffffffffffffffffffffffffffffffffffff16146118a0576040517f08c379a000000000000000000000000000000000000000000000000000000000815260040161189790613525565b60405180910390fd5b600073ffffffffffffffffffffffffffffffffffffffff168173ffffffffffffffffffffffffffffffffffffffff160361190f576040517f08c379a000000000000000000000000000000000000000000000000000000000815260040161190690613591565b60405180910390fd5b6001600260008373ffffffffffffffffffffffffffffffffffffffff1673ffffffffffffffffffffffffffffffffffffffff16815260200190815260200160002060006101000a81548160ff0219169083151502179055508073ffffffffffffffffffffffffffffffffffffffff167ff8cb78fd48c1bddb55d61c3a2194065c4da452df7907042a74a44d926875b7d760405160405180910390a250565b600160009054906101000a900473ffffffffffffffffffffffffffffffffffffffff1681565b60008054906101000a900473ffffffffffffffffffffffffffffffffffffffff1673ffffffffffffffffffffffffffffffffffffffff163373ffffffffffffffffffffffffffffffffffffffff1614611a61576040517f08c379a0000000000000000000000000000000000000000000000000000000008152600401611a5890613525565b60405180910390fd5b600073ffffffffffffffffffffffffffffffffffffffff168173ffffffffffffffffffffffffffffffffffffffff1603611ad0576040517f08c379a0000000000000000000000000000000000000000000000000000000008152600401611ac790613591565b60405180910390fd5b6000600360008373ffffffffffffffffffffffffffffffffffffffff1673ffffffffffffffffffffffffffffffffffffffff16815260200190815260200160002060006101000a81548160ff0219169083151502179055508073ffffffffffffffffffffffffffffffffffffffff167fd0b6040b205b47036cd0ff16a3d836c3185fa63e98ea7b78623cf349cd8d896560405160405180910390a250565b60008054906101000a900473ffffffffffffffffffffffffffffffffffffffff1681565b600260003373ffffffffffffffffffffffffffffffffffffffff1673ffffffffffffffffffffffffffffffffffffffff16815260200190815260200160002060009054906101000a900460ff16611c1e576040517f08c379a0000000000000000000000000000000000000000000000000000000008152600401611c1590613c43565b60405180910390fd5b60006005600084815260200190815260200160002090508060000160009054906101000a900460ff16611c86576040517f08c379a0000000000000000000000000000000000000000000000000000000008152600401611c7d906135fd565b60405180910390fd5b600073ffffffffffffffffffffffffffffffffffffffff168160000160019054906101000a900473ffffffffffffffffffffffffffffffffffffffff1673ffffffffffffffffffffffffffffffffffffffff1603611d19576040517f08c379a0000000000000000000000000000000000000000000000000000000008152600401611d1090613669565b60405180910390fd5b818160040160006101000a81548160ff0219169083151502179055503373ffffffffffffffffffffffffffffffffffffffff16837f353fce2eaeedc74de3412e7a57ab7a8071b62924af1d3570e604654b2e1cfff68442604051611d7e929190613c63565b60405180910390a3505050565b60008054906101000a900473ffffffffffffffffffffffffffffffffffffffff1673ffffffffffffffffffffffffffffffffffffffff163373ffffffffffffffffffffffffffffffffffffffff1614611e19576040517f08c379a0000000000000000000000000000000000000000000000000000000008152600401611e1090613525565b60405180910390fd5b600073ffffffffffffffffffffffffffffffffffffffff168173ffffffffffffffffffffffffffffffffffffffff1603611e88576040517f08c379a0000000000000000000000000000000000000000000000000000000008152600401611e7f90613591565b60405180910390fd5b600260008273ffffffffffffffffffffffffffffffffffffffff1673ffffffffffffffffffffffffffffffffffffffff16815260200190815260200160002060009054906101000a900460ff16611f75576001600260008373ffffffffffffffffffffffffffffffffffffffff1673ffffffffffffffffffffffffffffffffffffffff16815260200190815260200160002060006101000a81548160ff0219169083151502179055508073ffffffffffffffffffffffffffffffffffffffff167ff8cb78fd48c1bddb55d61c3a2194065c4da452df7907042a74a44d926875b7d760405160405180910390a25b600360008273ffffffffffffffffffffffffffffffffffffffff1673ffffffffffffffffffffffffffffffffffffffff16815260200190815260200160002060009054906101000a900460ff16612062576001600360008373ffffffffffffffffffffffffffffffffffffffff1673ffffffffffffffffffffffffffffffffffffffff16815260200190815260200160002060006101000a81548160ff0219169083151502179055508073ffffffffffffffffffffffffffffffffffffffff167ff920c05bb52af23500f13fcb4e331b2511380af54f71a667ab40f347db49f2cb60405160405180910390a25b600460008273ffffffffffffffffffffffffffffffffffffffff1673ffffffffffffffffffffffffffffffffffffffff16815260200190815260200160002060009054906101000a900460ff1661214f576001600460008373ffffffffffffffffffffffffffffffffffffffff1673ffffffffffffffffffffffffffffffffffffffff16815260200190815260200160002060006101000a81548160ff0219169083151502179055508073ffffffffffffffffffffffffffffffffffffffff167f06b7e73b864eee3b44819c423de068a65e4ab0266e23e5b6dd94442347d55cad60405160405180910390a25b50565b6000600260008373ffffffffffffffffffffffffffffffffffffffff1673ffffffffffffffffffffffffffffffffffffffff16815260200190815260200160002060009054906101000a900460ff1680156121f65750600360008373ffffffffffffffffffffffffffffffffffffffff1673ffffffffffffffffffffffffffffffffffffffff16815260200190815260200160002060009054906101000a900460ff165b801561224b5750600460008373ffffffffffffffffffffffffffffffffffffffff1673ffffffffffffffffffffffffffffffffffffffff16815260200190815260200160002060009054906101000a900460ff165b9050919050565b60006005600083815260200190815260200160002090508060000160009054906101000a900460ff166122ba576040517f08c379a00000000000000000000000000000000000000000000000000000000081526004016122b1906135fd565b60405180910390fd5b600073ffffffffffffffffffffffffffffffffffffffff168160000160019054906101000a900473ffffffffffffffffffffffffffffffffffffffff1673ffffffffffffffffffffffffffffffffffffffff160361234d576040517f08c379a000000000000000000000000000000000000000000000000000000000815260040161234490613669565b60405180910390fd5b8060000160019054906101000a900473ffffffffffffffffffffffffffffffffffffffff1673ffffffffffffffffffffffffffffffffffffffff163373ffffffffffffffffffffffffffffffffffffffff16146123df576040517f08c379a00000000000000000000000000000000000000000000000000000000081526004016123d690613cd8565b60405180910390fd5b600073ffffffffffffffffffffffffffffffffffffffff168160010160009054906101000a900473ffffffffffffffffffffffffffffffffffffffff1673ffffffffffffffffffffffffffffffffffffffff1603612472576040517f08c379a000000000000000000000000000000000000000000000000000000000815260040161246990613d44565b60405180910390fd5b8060040160009054906101000a900460ff166124c3576040517f08c379a00000000000000000000000000000000000000000000000000000000081526004016124ba90613db0565b60405180910390fd5b8060040160019054906101000a900460ff16612514576040517f08c379a000000000000000000000000000000000000000000000000000000000815260040161250b90613e1c565b60405180910390fd5b8060040160029054906101000a900460ff16612565576040517f08c379a000000000000000000000000000000000000000000000000000000000815260040161255c90613e88565b60405180910390fd5b8060040160039054906101000a900460ff166125b6576040517f08c379a00000000000000000000000000000000000000000000000000000000081526004016125ad90613ef4565b60405180910390fd5b80600201544710156125fd576040517f08c379a00000000000000000000000000000000000000000000000000000000081526004016125f490613f60565b60405180910390fd5b60008160000160019054906101000a900473ffffffffffffffffffffffffffffffffffffffff1673ffffffffffffffffffffffffffffffffffffffff16826002015460405161264b90613b0a565b60006040518083038185875af1925050503d8060008114612688576040519150601f19603f3d011682016040523d82523d6000602084013e61268d565b606091505b50509050806126d1576040517f08c379a00000000000000000000000000000000000000000000000000000000081526004016126c890613fcc565b60405180910390fd5b600160009054906101000a900473ffffffffffffffffffffffffffffffffffffffff1673ffffffffffffffffffffffffffffffffffffffff166323b872dd8360000160019054906101000a900473ffffffffffffffffffffffffffffffffffffffff168460010160009054906101000a900473ffffffffffffffffffffffffffffffffffffffff16866040518463ffffffff1660e01b81526004016127789392919061404b565b600060405180830381600087803b15801561279257600080fd5b505af11580156127a6573d6000803e3d6000fd5b5050505060008260000160006101000a81548160ff0219169083151502179055508160010160009054906101000a900473ffffffffffffffffffffffffffffffffffffffff1673ffffffffffffffffffffffffffffffffffffffff168260000160019054906101000a900473ffffffffffffffffffffffffffffffffffffffff1673ffffffffffffffffffffffffffffffffffffffff16847f919175c0e63a4ad406b2acbddd99db66956bff415bae4ec71dfe32eb56d10051856002015442604051612873929190614082565b60405180910390a4505050565b60026020528060005260406000206000915054906101000a900460ff1681565b60056020528060005260406000206000915090508060000160009054906101000a900460ff16908060000160019054906101000a900473ffffffffffffffffffffffffffffffffffffffff16908060010160009054906101000a900473ffffffffffffffffffffffffffffffffffffffff16908060020154908060030154908060040160009054906101000a900460ff16908060040160019054906101000a900460ff16908060040160029054906101000a900460ff16908060040160039054906101000a900460ff16905089565b60006005600083815260200190815260200160002090508060000160009054906101000a900460ff166129d7576040517f08c379a00000000000000000000000000000000000000000000000000000000081526004016129ce906135fd565b60405180910390fd5b600073ffffffffffffffffffffffffffffffffffffffff168160000160019054906101000a900473ffffffffffffffffffffffffffffffffffffffff1673ffffffffffffffffffffffffffffffffffffffff1603612a6a576040517f08c379a0000000000000000000000000000000000000000000000000000000008152600401612a6190613669565b60405180910390fd5b600073ffffffffffffffffffffffffffffffffffffffff168160010160009054906101000a900473ffffffffffffffffffffffffffffffffffffffff1673ffffffffffffffffffffffffffffffffffffffff1614612afd576040517f08c379a0000000000000000000000000000000000000000000000000000000008152600401612af4906140f7565b60405180910390fd5b8060000160019054906101000a900473ffffffffffffffffffffffffffffffffffffffff1673ffffffffffffffffffffffffffffffffffffffff163373ffffffffffffffffffffffffffffffffffffffff1603612b8f576040517f08c379a0000000000000000000000000000000000000000000000000000000008152600401612b8690614163565b60405180910390fd5b8060030154341015612bd6576040517f08c379a0000000000000000000000000000000000000000000000000000000008152600401612bcd906141cf565b60405180910390fd5b338160010160006101000a81548173ffffffffffffffffffffffffffffffffffffffff021916908373ffffffffffffffffffffffffffffffffffffffff1602179055503373ffffffffffffffffffffffffffffffffffffffff16827fba7090fc741268e9993ebd5e9fb391b13b5e4c7a58ad12421aa0fa7e2d61b9f03442604051612c62929190614082565b60405180910390a35050565b60008054906101000a900473ffffffffffffffffffffffffffffffffffffffff1673ffffffffffffffffffffffffffffffffffffffff163373ffffffffffffffffffffffffffffffffffffffff1614612cfc576040517f08c379a0000000000000000000000000000000000000000000000000000000008152600401612cf390613525565b60405180910390fd5b600073ffffffffffffffffffffffffffffffffffffffff168173ffffffffffffffffffffffffffffffffffffffff1603612d6b576040517f08c379a0000000000000000000000000000000000000000000000000000000008152600401612d6290613591565b60405180910390fd5b600260008273ffffffffffffffffffffffffffffffffffffffff1673ffffffffffffffffffffffffffffffffffffffff16815260200190815260200160002060009054906101000a900460ff1615612e59576000600260008373ffffffffffffffffffffffffffffffffffffffff1673ffffffffffffffffffffffffffffffffffffffff16815260200190815260200160002060006101000a81548160ff0219169083151502179055508073ffffffffffffffffffffffffffffffffffffffff167feacbe29d685a95ba4532dcd8a317a66ceb8c4f0212067336226f5c06a2303ae560405160405180910390a25b600360008273ffffffffffffffffffffffffffffffffffffffff1673ffffffffffffffffffffffffffffffffffffffff16815260200190815260200160002060009054906101000a900460ff1615612f47576000600360008373ffffffffffffffffffffffffffffffffffffffff1673ffffffffffffffffffffffffffffffffffffffff16815260200190815260200160002060006101000a81548160ff0219169083151502179055508073ffffffffffffffffffffffffffffffffffffffff167fd0b6040b205b47036cd0ff16a3d836c3185fa63e98ea7b78623cf349cd8d896560405160405180910390a25b600460008273ffffffffffffffffffffffffffffffffffffffff1673ffffffffffffffffffffffffffffffffffffffff16815260200190815260200160002060009054906101000a900460ff1615613035576000600460008373ffffffffffffffffffffffffffffffffffffffff1673ffffffffffffffffffffffffffffffffffffffff16815260200190815260200160002060006101000a81548160ff0219169083151502179055508073ffffffffffffffffffffffffffffffffffffffff167f356c02df5f27e0e70ccc1fe4d9fdce0ac870948ebc6b824e6169812b4ec6c61660405160405180910390a25b50565b60008054906101000a900473ffffffffffffffffffffffffffffffffffffffff1673ffffffffffffffffffffffffffffffffffffffff163373ffffffffffffffffffffffffffffffffffffffff16146130c6576040517f08c379a00000000000000000000000000000000000000000000000000000000081526004016130bd90613525565b60405180910390fd5b600073ffffffffffffffffffffffffffffffffffffffff168173ffffffffffffffffffffffffffffffffffffffff1603613135576040517f08c379a000000000000000000000000000000000000000000000000000000000815260040161312c9061423b565b60405180910390fd5b60008060009054906101000a900473ffffffffffffffffffffffffffffffffffffffff169050816000806101000a81548173ffffffffffffffffffffffffffffffffffffffff021916908373ffffffffffffffffffffffffffffffffffffffff1602179055508173ffffffffffffffffffffffffffffffffffffffff168173ffffffffffffffffffffffffffffffffffffffff167f8be0079c531659141344cd1fd0a4f28419497f9722a3daafe3b4186f6b6457e060405160405180910390a35050565b600080fd5b600073ffffffffffffffffffffffffffffffffffffffff82169050919050565b6000613229826131fe565b9050919050565b6132398161321e565b811461324457600080fd5b50565b60008135905061325681613230565b92915050565b600060208284031215613272576132716131f9565b5b600061328084828501613247565b91505092915050565b60008115159050919050565b61329e81613289565b82525050565b60006020820190506132b96000830184613295565b92915050565b6000819050919050565b6132d2816132bf565b81146132dd57600080fd5b50565b6000813590506132ef816132c9565b92915050565b60006020828403121561330b5761330a6131f9565b5b6000613319848285016132e0565b91505092915050565b60008060006060848603121561333b5761333a6131f9565b5b6000613349868287016132e0565b935050602061335a868287016132e0565b925050604061336b868287016132e0565b9150509250925092565b61337e8161321e565b82525050565b60006020820190506133996000830184613375565b92915050565b6133a881613289565b81146133b357600080fd5b50565b6000813590506133c58161339f565b92915050565b600080604083850312156133e2576133e16131f9565b5b60006133f0858286016132e0565b9250506020613401858286016133b6565b9150509250929050565b6000613416826131fe565b9050919050565b6134268161340b565b82525050565b613435816132bf565b82525050565b600061012082019050613451600083018c613295565b61345e602083018b61341d565b61346b604083018a61341d565b613478606083018961342c565b613485608083018861342c565b61349260a0830187613295565b61349f60c0830186613295565b6134ac60e0830185613295565b6134ba610100830184613295565b9a9950505050505050505050565b600082825260208201905092915050565b7f4f6e6c79206f776e657200000000000000000000000000000000000000000000600082015250565b600061350f600a836134c8565b915061351a826134d9565b602082019050919050565b6000602082019050818103600083015261353e81613502565b9050919050565b7f496e76616c696420616464726573730000000000000000000000000000000000600082015250565b600061357b600f836134c8565b915061358682613545565b602082019050919050565b600060208201905081810360008301526135aa8161356e565b9050919050565b7f50726f7065727479206e6f74206c697374656400000000000000000000000000600082015250565b60006135e76013836134c8565b91506135f2826135b1565b602082019050919050565b60006020820190508181036000830152613616816135da565b9050919050565b7f4c697374696e6720646f6573206e6f7420657869737400000000000000000000600082015250565b60006136536016836134c8565b915061365e8261361d565b602082019050919050565b6000602082019050818103600083015261368281613646565b9050919050565b7f4e6f7420617574686f72697a656420746f20617070726f76652073616c650000600082015250565b60006136bf601e836134c8565b91506136ca82613689565b602082019050919050565b600060208201905081810360008301526136ee816136b2565b9050919050565b600060608201905061370a6000830186613295565b6137176020830185613295565b613724604083018461342c565b949350505050565b7f5072696365206d7573742062652067726561746572207468616e203000000000600082015250565b6000613762601c836134c8565b915061376d8261372c565b602082019050919050565b6000602082019050818103600083015261379181613755565b9050919050565b7f457363726f7720616d6f756e74206d757374206265206772656174657220746860008201527f616e203000000000000000000000000000000000000000000000000000000000602082015250565b60006137f46024836134c8565b91506137ff82613798565b604082019050919050565b60006020820190508181036000830152613823816137e7565b9050919050565b7f416c7265616479206c6973746564000000000000000000000000000000000000600082015250565b6000613860600e836134c8565b915061386b8261382a565b602082019050919050565b6000602082019050818103600083015261388f81613853565b9050919050565b60006020820190506138ab600083018461342c565b92915050565b6000815190506138c081613230565b92915050565b6000602082840312156138dc576138db6131f9565b5b60006138ea848285016138b1565b91505092915050565b7f4f6e6c79206f776e65722063616e206c69737400000000000000000000000000600082015250565b60006139296013836134c8565b9150613934826138f3565b602082019050919050565b600060208201905081810360008301526139588161391c565b9050919050565b60006040820190506139746000830185613375565b6139816020830184613375565b9392505050565b6000815190506139978161339f565b92915050565b6000602082840312156139b3576139b26131f9565b5b60006139c184828501613988565b91505092915050565b7f457363726f77206e6f7420617070726f76656400000000000000000000000000600082015250565b6000613a006013836134c8565b9150613a0b826139ca565b602082019050919050565b60006020820190508181036000830152613a2f816139f3565b9050919050565b6000606082019050613a4b600083018661342c565b613a58602083018561342c565b613a65604083018461342c565b949350505050565b7f496e73756666696369656e742062616c616e6365000000000000000000000000600082015250565b6000613aa36014836134c8565b9150613aae82613a6d565b602082019050919050565b60006020820190508181036000830152613ad281613a96565b9050919050565b600081905092915050565b50565b6000613af4600083613ad9565b9150613aff82613ae4565b600082019050919050565b6000613b1582613ae7565b9150819050919050565b7f5769746864726177206661696c65640000000000000000000000000000000000600082015250565b6000613b55600f836134c8565b9150613b6082613b1f565b602082019050919050565b60006020820190508181036000830152613b8481613b48565b9050919050565b7f4f6e6c7920676f7665726e6d656e740000000000000000000000000000000000600082015250565b6000613bc1600f836134c8565b9150613bcc82613b8b565b602082019050919050565b60006020820190508181036000830152613bf081613bb4565b9050919050565b7f4f6e6c7920696e73706563746f72000000000000000000000000000000000000600082015250565b6000613c2d600e836134c8565b9150613c3882613bf7565b602082019050919050565b60006020820190508181036000830152613c5c81613c20565b9050919050565b6000604082019050613c786000830185613295565b613c85602083018461342c565b9392505050565b7f4f6e6c792073656c6c65722063616e2066696e616c697a652073616c65000000600082015250565b6000613cc2601d836134c8565b9150613ccd82613c8c565b602082019050919050565b60006020820190508181036000830152613cf181613cb5565b9050919050565b7f427579657220686173206e6f74206465706f73697465642066756e6473000000600082015250565b6000613d2e601d836134c8565b9150613d3982613cf8565b602082019050919050565b60006020820190508181036000830152613d5d81613d21565b9050919050565b7f496e7370656374696f6e206661696c6564000000000000000000000000000000600082015250565b6000613d9a6011836134c8565b9150613da582613d64565b602082019050919050565b60006020820190508181036000830152613dc981613d8d565b9050919050565b7f4c656e646572206e6f7420617070726f76656400000000000000000000000000600082015250565b6000613e066013836134c8565b9150613e1182613dd0565b602082019050919050565b60006020820190508181036000830152613e3581613df9565b9050919050565b7f476f7665726e6d656e7420766572696669636174696f6e206d697373696e6700600082015250565b6000613e72601f836134c8565b9150613e7d82613e3c565b602082019050919050565b60006020820190508181036000830152613ea181613e65565b9050919050565b7f53656c6c6572206e6f7420617070726f76656400000000000000000000000000600082015250565b6000613ede6013836134c8565b9150613ee982613ea8565b602082019050919050565b60006020820190508181036000830152613f0d81613ed1565b9050919050565b7f496e73756666696369656e742066756e64730000000000000000000000000000600082015250565b6000613f4a6012836134c8565b9150613f5582613f14565b602082019050919050565b60006020820190508181036000830152613f7981613f3d565b9050919050565b7f5472616e73666572206661696c65640000000000000000000000000000000000600082015250565b6000613fb6600f836134c8565b9150613fc182613f80565b602082019050919050565b60006020820190508181036000830152613fe581613fa9565b9050919050565b6000819050919050565b600061401161400c614007846131fe565b613fec565b6131fe565b9050919050565b600061402382613ff6565b9050919050565b600061403582614018565b9050919050565b6140458161402a565b82525050565b6000606082019050614060600083018661403c565b61406d602083018561403c565b61407a604083018461342c565b949350505050565b6000604082019050614097600083018561342c565b6140a4602083018461342c565b9392505050565b7f427579657220616c72656164792061737369676e656400000000000000000000600082015250565b60006140e16016836134c8565b91506140ec826140ab565b602082019050919050565b60006020820190508181036000830152614110816140d4565b9050919050565b7f53656c6c65722063616e6e6f7420627579206f776e2070726f70657274790000600082015250565b600061414d601e836134c8565b915061415882614117565b602082019050919050565b6000602082019050818103600083015261417c81614140565b9050919050565b7f4e6f7420656e6f756768206561726e657374206d6f6e65790000000000000000600082015250565b60006141b96018836134c8565b91506141c482614183565b602082019050919050565b600060208201905081810360008301526141e8816141ac565b9050919050565b7f496e76616c6964206e6577206f776e6572000000000000000000000000000000600082015250565b60006142256011836134c8565b9150614230826141ef565b602082019050919050565b6000602082019050818103600083015261425481614218565b905091905056fea26469706673582212202aefc4628023f76eb6c12cd0cfb3e24e293dae6304c216a8b49ca4bc0809582764736f6c634300081c0033",
  "linkReferences": {},
  "deployedLinkReferences": {}
}