{
  "_format": "hh-sol-artifact-1",
  "contractName": "Escrow",
  "sourceName": "contracts/Escrow.sol",
  "abi": [
    {
      "inputs": [
        {
          "internalType": "address",
          "name": "_nftAddress",
          "type": "address"
        },
        {
          "internalType": "address",
          "name": "_inspector",
          "type": "address"
        },
        {
          "internalType": "address",
          "name": "_lender",
          "type": "address"
        },
        {
          "internalType": "address",
          "name": "_government",
          "type": "address"
        }
      ],
      "stateMutability": "nonpayable",
      "type": "constructor"
    },
    {
      "inputs": [
        {
          "internalType": "uint256",
          "name": "_nftID",
          "type": "uint256"
        }
      ],
      "name": "approveSale",
      "outputs": [],
      "stateMutability": "nonpayable",
      "type": "function"
    },
    {
      "inputs": [
        {
          "internalType": "uint256",
          "name": "_nftID",
          "type": "uint256"
        }
      ],
      "name": "depositEarnest",
      "outputs": [],
      "stateMutability": "payable",
      "type": "function"
    },
    {
      "inputs": [
        {
          "internalType": "uint256",
          "name": "_nftID",
          "type": "uint256"
        }
      ],
      "name": "finalizeSale",
      "outputs": [],
      "stateMutability": "nonpayable",
      "type": "function"
    },
    {
      "inputs": [],
      "name": "government",
      "outputs": [
        {
          "internalType": "address",
          "name": "",
          "type": "address"
        }
      ],
      "stateMutability": "view",
      "type": "function"
    },
    {
      "inputs": [],
      "name": "inspector",
      "outputs": [
        {
          "internalType": "address",
          "name": "",
          "type": "address"
        }
      ],
      "stateMutability": "view",
      "type": "function"
    },
    {
      "inputs": [],
      "name": "lender",
      "outputs": [
        {
          "internalType": "address",
          "name": "",
          "type": "address"
        }
      ],
      "stateMutability": "view",
      "type": "function"
    },
    {
      "inputs": [
        {
          "internalType": "uint256",
          "name": "_nftID",
          "type": "uint256"
        },
        {
          "internalType": "uint256",
          "name": "_purchasePrice",
          "type": "uint256"
        },
        {
          "internalType": "uint256",
          "name": "_escrowAmount",
          "type": "uint256"
        }
      ],
      "name": "list",
      "outputs": [],
      "stateMutability": "nonpayable",
      "type": "function"
    },
    {
      "inputs": [
        {
          "internalType": "uint256",
          "name": "",
          "type": "uint256"
        }
      ],
      "name": "listings",
      "outputs": [
        {
          "internalType": "bool",
          "name": "isListed",
          "type": "bool"
        },
        {
          "internalType": "address payable",
          "name": "seller",
          "type": "address"
        },
        {
          "internalType": "address payable",
          "name": "buyer",
          "type": "address"
        },
        {
          "internalType": "uint256",
          "name": "purchasePrice",
          "type": "uint256"
        },
        {
          "internalType": "uint256",
          "name": "escrowAmount",
          "type": "uint256"
        },
        {
          "internalType": "bool",
          "name": "inspectionPassed",
          "type": "bool"
        },
        {
          "internalType": "bool",
          "name": "lenderApproved",
          "type": "bool"
        },
        {
          "internalType": "bool",
          "name": "governmentVerified",
          "type": "bool"
        },
        {
          "internalType": "bool",
          "name": "sellerApproved",
          "type": "bool"
        }
      ],
      "stateMutability": "view",
      "type": "function"
    },
    {
      "inputs": [],
      "name": "nftAddress",
      "outputs": [
        {
          "internalType": "address",
          "name": "",
          "type": "address"
        }
      ],
      "stateMutability": "view",
      "type": "function"
    },
    {
      "inputs": [
        {
          "internalType": "uint256",
          "name": "_nftID",
          "type": "uint256"
        },
        {
          "internalType": "bool",
          "name": "_passed",
          "type": "bool"
        }
      ],
      "name": "updateInspectionStatus",
      "outputs": [],
      "stateMutability": "nonpayable",
      "type": "function"
    },
    {
      "inputs": [
        {
          "internalType": "uint256",
          "name": "_nftID",
          "type": "uint256"
        }
      ],
      "name": "verifyProperty",
      "outputs": [],
      "stateMutability": "nonpayable",
      "type": "function"
    },
    {
      "stateMutability": "payable",
      "type": "receive"
    }
  ],
  "bytecode": "0x608060405234801561001057600080fd5b50604051611c18380380611c18833981810160405281019061003291906101a1565b836000806101000a81548173ffffffffffffffffffffffffffffffffffffffff021916908373ffffffffffffffffffffffffffffffffffffffff16021790555082600160006101000a81548173ffffffffffffffffffffffffffffffffffffffff021916908373ffffffffffffffffffffffffffffffffffffffff16021790555081600260006101000a81548173ffffffffffffffffffffffffffffffffffffffff021916908373ffffffffffffffffffffffffffffffffffffffff16021790555080600360006101000a81548173ffffffffffffffffffffffffffffffffffffffff021916908373ffffffffffffffffffffffffffffffffffffffff16021790555050505050610208565b600080fd5b600073ffffffffffffffffffffffffffffffffffffffff82169050919050565b600061016e82610143565b9050919050565b61017e81610163565b811461018957600080fd5b50565b60008151905061019b81610175565b92915050565b600080600080608085870312156101bb576101ba61013e565b5b60006101c98782880161018c565b94505060206101da8782880161018c565b93505060406101eb8782880161018c565b92505060606101fc8782880161018c565b91505092959194509250565b611a01806102176000396000f3fe6080604052600436106100a05760003560e01c80639d0e5fd6116100645780639d0e5fd61461017d578063aa929380146101a6578063bcead63e146101cf578063de74e57b146101fa578063e740f7701461023f578063ed2cee9e1461025b576100a7565b806314a72feb146100ac57806319aeb490146100d55780632672f526146100fe5780634212a8ae146101295780635bf8633a14610152576100a7565b366100a757005b600080fd5b3480156100b857600080fd5b506100d360048036038101906100ce9190611044565b610286565b005b3480156100e157600080fd5b506100fc60048036038101906100f79190611071565b61041e565b005b34801561010a57600080fd5b5061011361067e565b6040516101209190611105565b60405180910390f35b34801561013557600080fd5b50610150600480360381019061014b9190611044565b6106a4565b005b34801561015e57600080fd5b506101676107c9565b6040516101749190611105565b60405180910390f35b34801561018957600080fd5b506101a4600480360381019061019f9190611158565b6107ed565b005b3480156101b257600080fd5b506101cd60048036038101906101c89190611044565b610912565b005b3480156101db57600080fd5b506101e4610d65565b6040516101f19190611105565b60405180910390f35b34801561020657600080fd5b50610221600480360381019061021c9190611044565b610d8b565b604051610236999897969594939291906111d7565b60405180910390f35b61025960048036038101906102549190611044565b610e5a565b005b34801561026757600080fd5b50610270610fe3565b60405161027d9190611105565b60405180910390f35b60006004600083815260200190815260200160002090508060000160009054906101000a900460ff166102ee576040517f08c379a00000000000000000000000000000000000000000000000000000000081526004016102e5906112c1565b60405180910390fd5b600260009054906101000a900473ffffffffffffffffffffffffffffffffffffffff1673ffffffffffffffffffffffffffffffffffffffff163373ffffffffffffffffffffffffffffffffffffffff16036103655760018160040160016101000a81548160ff02191690831515021790555061041a565b8060000160019054906101000a900473ffffffffffffffffffffffffffffffffffffffff1673ffffffffffffffffffffffffffffffffffffffff163373ffffffffffffffffffffffffffffffffffffffff16036103de5760018160040160036101000a81548160ff021916908315150217905550610419565b6040517f08c379a00000000000000000000000000000000000000000000000000000000081526004016104109061132d565b60405180910390fd5b5b5050565b60008211610461576040517f08c379a000000000000000000000000000000000000000000000000000000000815260040161045890611399565b60405180910390fd5b600081116104a4576040517f08c379a000000000000000000000000000000000000000000000000000000000815260040161049b9061142b565b60405180910390fd5b6040518061012001604052806001151581526020013373ffffffffffffffffffffffffffffffffffffffff168152602001600073ffffffffffffffffffffffffffffffffffffffff168152602001838152602001828152602001600015158152602001600015158152602001600015158152602001600015158152506004600085815260200190815260200160002060008201518160000160006101000a81548160ff02191690831515021790555060208201518160000160016101000a81548173ffffffffffffffffffffffffffffffffffffffff021916908373ffffffffffffffffffffffffffffffffffffffff16021790555060408201518160010160006101000a81548173ffffffffffffffffffffffffffffffffffffffff021916908373ffffffffffffffffffffffffffffffffffffffff160217905550606082015181600201556080820151816003015560a08201518160040160006101000a81548160ff02191690831515021790555060c08201518160040160016101000a81548160ff02191690831515021790555060e08201518160040160026101000a81548160ff0219169083151502179055506101008201518160040160036101000a81548160ff021916908315150217905550905050505050565b600360009054906101000a900473ffffffffffffffffffffffffffffffffffffffff1681565b600360009054906101000a900473ffffffffffffffffffffffffffffffffffffffff1673ffffffffffffffffffffffffffffffffffffffff163373ffffffffffffffffffffffffffffffffffffffff1614610734576040517f08c379a000000000000000000000000000000000000000000000000000000000815260040161072b90611497565b60405180910390fd5b6004600082815260200190815260200160002060000160009054906101000a900460ff16610797576040517f08c379a000000000000000000000000000000000000000000000000000000000815260040161078e906112c1565b60405180910390fd5b60016004600083815260200190815260200160002060040160026101000a81548160ff02191690831515021790555050565b60008054906101000a900473ffffffffffffffffffffffffffffffffffffffff1681565b600160009054906101000a900473ffffffffffffffffffffffffffffffffffffffff1673ffffffffffffffffffffffffffffffffffffffff163373ffffffffffffffffffffffffffffffffffffffff161461087d576040517f08c379a000000000000000000000000000000000000000000000000000000000815260040161087490611503565b60405180910390fd5b6004600083815260200190815260200160002060000160009054906101000a900460ff166108e0576040517f08c379a00000000000000000000000000000000000000000000000000000000081526004016108d7906112c1565b60405180910390fd5b806004600084815260200190815260200160002060040160006101000a81548160ff0219169083151502179055505050565b60006004600083815260200190815260200160002090508060000160009054906101000a900460ff1661097a576040517f08c379a0000000000000000000000000000000000000000000000000000000008152600401610971906112c1565b60405180910390fd5b600073ffffffffffffffffffffffffffffffffffffffff168160010160009054906101000a900473ffffffffffffffffffffffffffffffffffffffff1673ffffffffffffffffffffffffffffffffffffffff1603610a0d576040517f08c379a0000000000000000000000000000000000000000000000000000000008152600401610a049061156f565b60405180910390fd5b8060040160009054906101000a900460ff16610a5e576040517f08c379a0000000000000000000000000000000000000000000000000000000008152600401610a55906115db565b60405180910390fd5b8060040160019054906101000a900460ff16610aaf576040517f08c379a0000000000000000000000000000000000000000000000000000000008152600401610aa690611647565b60405180910390fd5b8060040160029054906101000a900460ff16610b00576040517f08c379a0000000000000000000000000000000000000000000000000000000008152600401610af7906116b3565b60405180910390fd5b8060040160039054906101000a900460ff16610b51576040517f08c379a0000000000000000000000000000000000000000000000000000000008152600401610b489061171f565b60405180910390fd5b8060020154471015610b98576040517f08c379a0000000000000000000000000000000000000000000000000000000008152600401610b8f9061178b565b60405180910390fd5b60008160000160019054906101000a900473ffffffffffffffffffffffffffffffffffffffff1673ffffffffffffffffffffffffffffffffffffffff168260020154604051610be6906117dc565b60006040518083038185875af1925050503d8060008114610c23576040519150601f19603f3d011682016040523d82523d6000602084013e610c28565b606091505b5050905080610c6c576040517f08c379a0000000000000000000000000000000000000000000000000000000008152600401610c639061183d565b60405180910390fd5b60008054906101000a900473ffffffffffffffffffffffffffffffffffffffff1673ffffffffffffffffffffffffffffffffffffffff166323b872dd8360000160019054906101000a900473ffffffffffffffffffffffffffffffffffffffff168460010160009054906101000a900473ffffffffffffffffffffffffffffffffffffffff16866040518463ffffffff1660e01b8152600401610d11939291906118bc565b600060405180830381600087803b158015610d2b57600080fd5b505af1158015610d3f573d6000803e3d6000fd5b5050505060008260000160006101000a81548160ff021916908315150217905550505050565b600260009054906101000a900473ffffffffffffffffffffffffffffffffffffffff1681565b60046020528060005260406000206000915090508060000160009054906101000a900460ff16908060000160019054906101000a900473ffffffffffffffffffffffffffffffffffffffff16908060010160009054906101000a900473ffffffffffffffffffffffffffffffffffffffff16908060020154908060030154908060040160009054906101000a900460ff16908060040160019054906101000a900460ff16908060040160029054906101000a900460ff16908060040160039054906101000a900460ff16905089565b60006004600083815260200190815260200160002090508060000160009054906101000a900460ff16610ec2576040517f08c379a0000000000000000000000000000000000000000000000000000000008152600401610eb9906112c1565b60405180910390fd5b600073ffffffffffffffffffffffffffffffffffffffff168160010160009054906101000a900473ffffffffffffffffffffffffffffffffffffffff1673ffffffffffffffffffffffffffffffffffffffff1614610f55576040517f08c379a0000000000000000000000000000000000000000000000000000000008152600401610f4c9061193f565b60405180910390fd5b8060030154341015610f9c576040517f08c379a0000000000000000000000000000000000000000000000000000000008152600401610f93906119ab565b60405180910390fd5b338160010160006101000a81548173ffffffffffffffffffffffffffffffffffffffff021916908373ffffffffffffffffffffffffffffffffffffffff1602179055505050565b600160009054906101000a900473ffffffffffffffffffffffffffffffffffffffff1681565b600080fd5b6000819050919050565b6110218161100e565b811461102c57600080fd5b50565b60008135905061103e81611018565b92915050565b60006020828403121561105a57611059611009565b5b60006110688482850161102f565b91505092915050565b60008060006060848603121561108a57611089611009565b5b60006110988682870161102f565b93505060206110a98682870161102f565b92505060406110ba8682870161102f565b9150509250925092565b600073ffffffffffffffffffffffffffffffffffffffff82169050919050565b60006110ef826110c4565b9050919050565b6110ff816110e4565b82525050565b600060208201905061111a60008301846110f6565b92915050565b60008115159050919050565b61113581611120565b811461114057600080fd5b50565b6000813590506111528161112c565b92915050565b6000806040838503121561116f5761116e611009565b5b600061117d8582860161102f565b925050602061118e85828601611143565b9150509250929050565b6111a181611120565b82525050565b60006111b2826110c4565b9050919050565b6111c2816111a7565b82525050565b6111d18161100e565b82525050565b6000610120820190506111ed600083018c611198565b6111fa602083018b6111b9565b611207604083018a6111b9565b61121460608301896111c8565b61122160808301886111c8565b61122e60a0830187611198565b61123b60c0830186611198565b61124860e0830185611198565b611256610100830184611198565b9a9950505050505050505050565b600082825260208201905092915050565b7f50726f7065727479206e6f74206c697374656400000000000000000000000000600082015250565b60006112ab601383611264565b91506112b682611275565b602082019050919050565b600060208201905081810360008301526112da8161129e565b9050919050565b7f4e6f7420617574686f72697a656420746f20617070726f76652073616c650000600082015250565b6000611317601e83611264565b9150611322826112e1565b602082019050919050565b600060208201905081810360008301526113468161130a565b9050919050565b7f5072696365206d7573742062652067726561746572207468616e203000000000600082015250565b6000611383601c83611264565b915061138e8261134d565b602082019050919050565b600060208201905081810360008301526113b281611376565b9050919050565b7f457363726f7720616d6f756e74206d757374206265206772656174657220746860008201527f616e203000000000000000000000000000000000000000000000000000000000602082015250565b6000611415602483611264565b9150611420826113b9565b604082019050919050565b6000602082019050818103600083015261144481611408565b9050919050565b7f4f6e6c7920676f7665726e6d656e742063616e20766572696679000000000000600082015250565b6000611481601a83611264565b915061148c8261144b565b602082019050919050565b600060208201905081810360008301526114b081611474565b9050919050565b7f4f6e6c7920696e73706563746f722063616e2075706461746520737461747573600082015250565b60006114ed602083611264565b91506114f8826114b7565b602082019050919050565b6000602082019050818103600083015261151c816114e0565b9050919050565b7f427579657220686173206e6f74206465706f73697465642066756e6473000000600082015250565b6000611559601d83611264565b915061156482611523565b602082019050919050565b600060208201905081810360008301526115888161154c565b9050919050565b7f496e7370656374696f6e206661696c6564000000000000000000000000000000600082015250565b60006115c5601183611264565b91506115d08261158f565b602082019050919050565b600060208201905081810360008301526115f4816115b8565b9050919050565b7f4c656e646572206e6f7420617070726f76656400000000000000000000000000600082015250565b6000611631601383611264565b915061163c826115fb565b602082019050919050565b6000602082019050818103600083015261166081611624565b9050919050565b7f476f7665726e6d656e7420766572696669636174696f6e206d697373696e6700600082015250565b600061169d601f83611264565b91506116a882611667565b602082019050919050565b600060208201905081810360008301526116cc81611690565b9050919050565b7f53656c6c6572206e6f7420617070726f76656400000000000000000000000000600082015250565b6000611709601383611264565b9150611714826116d3565b602082019050919050565b60006020820190508181036000830152611738816116fc565b9050919050565b7f496e73756666696369656e742066756e64730000000000000000000000000000600082015250565b6000611775601283611264565b91506117808261173f565b602082019050919050565b600060208201905081810360008301526117a481611768565b9050919050565b600081905092915050565b50565b60006117c66000836117ab565b91506117d1826117b6565b600082019050919050565b60006117e7826117b9565b9150819050919050565b7f5472616e73666572206661696c65640000000000000000000000000000000000600082015250565b6000611827600f83611264565b9150611832826117f1565b602082019050919050565b600060208201905081810360008301526118568161181a565b9050919050565b6000819050919050565b600061188261187d611878846110c4565b61185d565b6110c4565b9050919050565b600061189482611867565b9050919050565b60006118a682611889565b9050919050565b6118b68161189b565b82525050565b60006060820190506118d160008301866118ad565b6118de60208301856118ad565b6118eb60408301846111c8565b949350505050565b7f427579657220616c72656164792061737369676e656400000000000000000000600082015250565b6000611929601683611264565b9150611934826118f3565b602082019050919050565b600060208201905081810360008301526119588161191c565b9050919050565b7f4e6f7420656e6f756768206561726e657374206d6f6e65790000000000000000600082015250565b6000611995601883611264565b91506119a08261195f565b602082019050919050565b600060208201905081810360008301526119c481611988565b905091905056fea2646970667358221220e67213d23f294c39524f6e6e59f0de25b764d6ec67a05132d2662f51c91d9b4664736f6c634300081c0033",
  "linkReferences": {},
  "deployedLinkReferences": {}
}