{
  "_format": "hh-sol-artifact-1",
  "contractName": "Escrow",
  "sourceName": "contracts/Escrow.sol",
  "abi": [
    {
      "inputs": [
        {
          "internalType": "address",
          "name": "_nftAddress",
          "type": "address"
        },
        {
          "internalType": "address",
          "name": "_inspector",
          "type": "address"
        },
        {
          "internalType": "address",
          "name": "_lender",
          "type": "address"
        },
        {
          "internalType": "address",
          "name": "_government",
          "type": "address"
        }
      ],
      "stateMutability": "nonpayable",
      "type": "constructor"
    },
    {
      "anonymous": false,
      "inputs": [
        {
          "indexed": true,
          "internalType": "uint256",
          "name": "nftID",
          "type": "uint256"
        },
        {
          "indexed": true,
          "internalType": "address",
          "name": "buyer",
          "type": "address"
        },
        {
          "indexed": false,
          "internalType": "uint256",
          "name": "amount",
          "type": "uint256"
        },
        {
          "indexed": false,
          "internalType": "uint256",
          "name": "timestamp",
          "type": "uint256"
        }
      ],
      "name": "EarnestDeposited",
      "type": "event"
    },
    {
      "anonymous": false,
      "inputs": [
        {
          "indexed": true,
          "internalType": "uint256",
          "name": "nftID",
          "type": "uint256"
        },
        {
          "indexed": true,
          "internalType": "address",
          "name": "inspector",
          "type": "address"
        },
        {
          "indexed": false,
          "internalType": "bool",
          "name": "passed",
          "type": "bool"
        },
        {
          "indexed": false,
          "internalType": "uint256",
          "name": "timestamp",
          "type": "uint256"
        }
      ],
      "name": "InspectionStatusUpdated",
      "type": "event"
    },
    {
      "anonymous": false,
      "inputs": [
        {
          "indexed": true,
          "internalType": "uint256",
          "name": "nftID",
          "type": "uint256"
        },
        {
          "indexed": true,
          "internalType": "address",
          "name": "seller",
          "type": "address"
        },
        {
          "indexed": false,
          "internalType": "uint256",
          "name": "purchasePrice",
          "type": "uint256"
        },
        {
          "indexed": false,
          "internalType": "uint256",
          "name": "escrowAmount",
          "type": "uint256"
        },
        {
          "indexed": false,
          "internalType": "uint256",
          "name": "timestamp",
          "type": "uint256"
        }
      ],
      "name": "PropertyListed",
      "type": "event"
    },
    {
      "anonymous": false,
      "inputs": [
        {
          "indexed": true,
          "internalType": "uint256",
          "name": "nftID",
          "type": "uint256"
        },
        {
          "indexed": true,
          "internalType": "address",
          "name": "government",
          "type": "address"
        },
        {
          "indexed": false,
          "internalType": "uint256",
          "name": "timestamp",
          "type": "uint256"
        }
      ],
      "name": "PropertyVerified",
      "type": "event"
    },
    {
      "anonymous": false,
      "inputs": [
        {
          "indexed": true,
          "internalType": "uint256",
          "name": "nftID",
          "type": "uint256"
        },
        {
          "indexed": true,
          "internalType": "address",
          "name": "approver",
          "type": "address"
        },
        {
          "indexed": false,
          "internalType": "bool",
          "name": "lenderApproved",
          "type": "bool"
        },
        {
          "indexed": false,
          "internalType": "bool",
          "name": "sellerApproved",
          "type": "bool"
        },
        {
          "indexed": false,
          "internalType": "uint256",
          "name": "timestamp",
          "type": "uint256"
        }
      ],
      "name": "SaleApprovalUpdated",
      "type": "event"
    },
    {
      "anonymous": false,
      "inputs": [
        {
          "indexed": true,
          "internalType": "uint256",
          "name": "nftID",
          "type": "uint256"
        },
        {
          "indexed": true,
          "internalType": "address",
          "name": "seller",
          "type": "address"
        },
        {
          "indexed": true,
          "internalType": "address",
          "name": "buyer",
          "type": "address"
        },
        {
          "indexed": false,
          "internalType": "uint256",
          "name": "amount",
          "type": "uint256"
        },
        {
          "indexed": false,
          "internalType": "uint256",
          "name": "timestamp",
          "type": "uint256"
        }
      ],
      "name": "SaleFinalized",
      "type": "event"
    },
    {
      "inputs": [
        {
          "internalType": "uint256",
          "name": "_nftID",
          "type": "uint256"
        }
      ],
      "name": "approveSale",
      "outputs": [],
      "stateMutability": "nonpayable",
      "type": "function"
    },
    {
      "inputs": [
        {
          "internalType": "uint256",
          "name": "_nftID",
          "type": "uint256"
        }
      ],
      "name": "depositEarnest",
      "outputs": [],
      "stateMutability": "payable",
      "type": "function"
    },
    {
      "inputs": [
        {
          "internalType": "uint256",
          "name": "_nftID",
          "type": "uint256"
        }
      ],
      "name": "finalizeSale",
      "outputs": [],
      "stateMutability": "nonpayable",
      "type": "function"
    },
    {
      "inputs": [],
      "name": "government",
      "outputs": [
        {
          "internalType": "address",
          "name": "",
          "type": "address"
        }
      ],
      "stateMutability": "view",
      "type": "function"
    },
    {
      "inputs": [],
      "name": "inspector",
      "outputs": [
        {
          "internalType": "address",
          "name": "",
          "type": "address"
        }
      ],
      "stateMutability": "view",
      "type": "function"
    },
    {
      "inputs": [],
      "name": "lender",
      "outputs": [
        {
          "internalType": "address",
          "name": "",
          "type": "address"
        }
      ],
      "stateMutability": "view",
      "type": "function"
    },
    {
      "inputs": [
        {
          "internalType": "uint256",
          "name": "_nftID",
          "type": "uint256"
        },
        {
          "internalType": "uint256",
          "name": "_purchasePrice",
          "type": "uint256"
        },
        {
          "internalType": "uint256",
          "name": "_escrowAmount",
          "type": "uint256"
        }
      ],
      "name": "list",
      "outputs": [],
      "stateMutability": "nonpayable",
      "type": "function"
    },
    {
      "inputs": [
        {
          "internalType": "uint256",
          "name": "",
          "type": "uint256"
        }
      ],
      "name": "listings",
      "outputs": [
        {
          "internalType": "bool",
          "name": "isListed",
          "type": "bool"
        },
        {
          "internalType": "address payable",
          "name": "seller",
          "type": "address"
        },
        {
          "internalType": "address payable",
          "name": "buyer",
          "type": "address"
        },
        {
          "internalType": "uint256",
          "name": "purchasePrice",
          "type": "uint256"
        },
        {
          "internalType": "uint256",
          "name": "escrowAmount",
          "type": "uint256"
        },
        {
          "internalType": "bool",
          "name": "inspectionPassed",
          "type": "bool"
        },
        {
          "internalType": "bool",
          "name": "lenderApproved",
          "type": "bool"
        },
        {
          "internalType": "bool",
          "name": "governmentVerified",
          "type": "bool"
        },
        {
          "internalType": "bool",
          "name": "sellerApproved",
          "type": "bool"
        }
      ],
      "stateMutability": "view",
      "type": "function"
    },
    {
      "inputs": [],
      "name": "nftAddress",
      "outputs": [
        {
          "internalType": "address",
          "name": "",
          "type": "address"
        }
      ],
      "stateMutability": "view",
      "type": "function"
    },
    {
      "inputs": [
        {
          "internalType": "uint256",
          "name": "_nftID",
          "type": "uint256"
        },
        {
          "internalType": "bool",
          "name": "_passed",
          "type": "bool"
        }
      ],
      "name": "updateInspectionStatus",
      "outputs": [],
      "stateMutability": "nonpayable",
      "type": "function"
    },
    {
      "inputs": [
        {
          "internalType": "uint256",
          "name": "_nftID",
          "type": "uint256"
        }
      ],
      "name": "verifyProperty",
      "outputs": [],
      "stateMutability": "nonpayable",
      "type": "function"
    },
    {
      "stateMutability": "payable",
      "type": "receive"
    }
  ],
  "bytecode": "0x608060405234801561001057600080fd5b5060405161205e38038061205e833981810160405281019061003291906101a1565b836000806101000a81548173ffffffffffffffffffffffffffffffffffffffff021916908373ffffffffffffffffffffffffffffffffffffffff16021790555082600160006101000a81548173ffffffffffffffffffffffffffffffffffffffff021916908373ffffffffffffffffffffffffffffffffffffffff16021790555081600260006101000a81548173ffffffffffffffffffffffffffffffffffffffff021916908373ffffffffffffffffffffffffffffffffffffffff16021790555080600360006101000a81548173ffffffffffffffffffffffffffffffffffffffff021916908373ffffffffffffffffffffffffffffffffffffffff16021790555050505050610208565b600080fd5b600073ffffffffffffffffffffffffffffffffffffffff82169050919050565b600061016e82610143565b9050919050565b61017e81610163565b811461018957600080fd5b50565b60008151905061019b81610175565b92915050565b600080600080608085870312156101bb576101ba61013e565b5b60006101c98782880161018c565b94505060206101da8782880161018c565b93505060406101eb8782880161018c565b92505060606101fc8782880161018c565b91505092959194509250565b611e47806102176000396000f3fe6080604052600436106100a05760003560e01c80639d0e5fd6116100645780639d0e5fd61461017d578063aa929380146101a6578063bcead63e146101cf578063de74e57b146101fa578063e740f7701461023f578063ed2cee9e1461025b576100a7565b806314a72feb146100ac57806319aeb490146100d55780632672f526146100fe5780634212a8ae146101295780635bf8633a14610152576100a7565b366100a757005b600080fd5b3480156100b857600080fd5b506100d360048036038101906100ce9190611343565b610286565b005b3480156100e157600080fd5b506100fc60048036038101906100f79190611370565b610493565b005b34801561010a57600080fd5b50610113610746565b6040516101209190611404565b60405180910390f35b34801561013557600080fd5b50610150600480360381019061014b9190611343565b61076c565b005b34801561015e57600080fd5b506101676108e0565b6040516101749190611404565b60405180910390f35b34801561018957600080fd5b506101a4600480360381019061019f9190611457565b610904565b005b3480156101b257600080fd5b506101cd60048036038101906101c89190611343565b610a7a565b005b3480156101db57600080fd5b506101e4611013565b6040516101f19190611404565b60405180910390f35b34801561020657600080fd5b50610221600480360381019061021c9190611343565b611039565b604051610236999897969594939291906114d6565b60405180910390f35b61025960048036038101906102549190611343565b611108565b005b34801561026757600080fd5b506102706112e2565b60405161027d9190611404565b60405180910390f35b60006004600083815260200190815260200160002090508060000160009054906101000a900460ff166102ee576040517f08c379a00000000000000000000000000000000000000000000000000000000081526004016102e5906115c0565b60405180910390fd5b600260009054906101000a900473ffffffffffffffffffffffffffffffffffffffff1673ffffffffffffffffffffffffffffffffffffffff163373ffffffffffffffffffffffffffffffffffffffff16036103655760018160040160016101000a81548160ff02191690831515021790555061041a565b8060000160019054906101000a900473ffffffffffffffffffffffffffffffffffffffff1673ffffffffffffffffffffffffffffffffffffffff163373ffffffffffffffffffffffffffffffffffffffff16036103de5760018160040160036101000a81548160ff021916908315150217905550610419565b6040517f08c379a00000000000000000000000000000000000000000000000000000000081526004016104109061162c565b60405180910390fd5b5b3373ffffffffffffffffffffffffffffffffffffffff16827ff3885704728ba79a12d8fd32b89935eaaf93eac000e804e7ac9b533bc87e5b208360040160019054906101000a900460ff168460040160039054906101000a900460ff16426040516104879392919061164c565b60405180910390a35050565b600082116104d6576040517f08c379a00000000000000000000000000000000000000000000000000000000081526004016104cd906116cf565b60405180910390fd5b60008111610519576040517f08c379a000000000000000000000000000000000000000000000000000000000815260040161051090611761565b60405180910390fd5b6040518061012001604052806001151581526020013373ffffffffffffffffffffffffffffffffffffffff168152602001600073ffffffffffffffffffffffffffffffffffffffff168152602001838152602001828152602001600015158152602001600015158152602001600015158152602001600015158152506004600085815260200190815260200160002060008201518160000160006101000a81548160ff02191690831515021790555060208201518160000160016101000a81548173ffffffffffffffffffffffffffffffffffffffff021916908373ffffffffffffffffffffffffffffffffffffffff16021790555060408201518160010160006101000a81548173ffffffffffffffffffffffffffffffffffffffff021916908373ffffffffffffffffffffffffffffffffffffffff160217905550606082015181600201556080820151816003015560a08201518160040160006101000a81548160ff02191690831515021790555060c08201518160040160016101000a81548160ff02191690831515021790555060e08201518160040160026101000a81548160ff0219169083151502179055506101008201518160040160036101000a81548160ff0219169083151502179055509050503373ffffffffffffffffffffffffffffffffffffffff16837febe5022e5e01629ce50ec667b3f3333ec2ad62233a476b8c78afbc36fd931d7484844260405161073993929190611781565b60405180910390a3505050565b600360009054906101000a900473ffffffffffffffffffffffffffffffffffffffff1681565b600360009054906101000a900473ffffffffffffffffffffffffffffffffffffffff1673ffffffffffffffffffffffffffffffffffffffff163373ffffffffffffffffffffffffffffffffffffffff16146107fc576040517f08c379a00000000000000000000000000000000000000000000000000000000081526004016107f390611804565b60405180910390fd5b6004600082815260200190815260200160002060000160009054906101000a900460ff1661085f576040517f08c379a0000000000000000000000000000000000000000000000000000000008152600401610856906115c0565b60405180910390fd5b60016004600083815260200190815260200160002060040160026101000a81548160ff0219169083151502179055503373ffffffffffffffffffffffffffffffffffffffff16817f4fdf86fb949d94ea64686b0c53072d1e62e2b9205a072cd65dbacfe8f7556dcf426040516108d59190611824565b60405180910390a350565b60008054906101000a900473ffffffffffffffffffffffffffffffffffffffff1681565b600160009054906101000a900473ffffffffffffffffffffffffffffffffffffffff1673ffffffffffffffffffffffffffffffffffffffff163373ffffffffffffffffffffffffffffffffffffffff1614610994576040517f08c379a000000000000000000000000000000000000000000000000000000000815260040161098b9061188b565b60405180910390fd5b6004600083815260200190815260200160002060000160009054906101000a900460ff166109f7576040517f08c379a00000000000000000000000000000000000000000000000000000000081526004016109ee906115c0565b60405180910390fd5b806004600084815260200190815260200160002060040160006101000a81548160ff0219169083151502179055503373ffffffffffffffffffffffffffffffffffffffff16827f353fce2eaeedc74de3412e7a57ab7a8071b62924af1d3570e604654b2e1cfff68342604051610a6e9291906118ab565b60405180910390a35050565b60006004600083815260200190815260200160002090508060000160009054906101000a900460ff16610ae2576040517f08c379a0000000000000000000000000000000000000000000000000000000008152600401610ad9906115c0565b60405180910390fd5b8060000160019054906101000a900473ffffffffffffffffffffffffffffffffffffffff1673ffffffffffffffffffffffffffffffffffffffff163373ffffffffffffffffffffffffffffffffffffffff1614610b74576040517f08c379a0000000000000000000000000000000000000000000000000000000008152600401610b6b90611920565b60405180910390fd5b600073ffffffffffffffffffffffffffffffffffffffff168160010160009054906101000a900473ffffffffffffffffffffffffffffffffffffffff1673ffffffffffffffffffffffffffffffffffffffff1603610c07576040517f08c379a0000000000000000000000000000000000000000000000000000000008152600401610bfe9061198c565b60405180910390fd5b8060040160009054906101000a900460ff16610c58576040517f08c379a0000000000000000000000000000000000000000000000000000000008152600401610c4f906119f8565b60405180910390fd5b8060040160019054906101000a900460ff16610ca9576040517f08c379a0000000000000000000000000000000000000000000000000000000008152600401610ca090611a64565b60405180910390fd5b8060040160029054906101000a900460ff16610cfa576040517f08c379a0000000000000000000000000000000000000000000000000000000008152600401610cf190611ad0565b60405180910390fd5b8060040160039054906101000a900460ff16610d4b576040517f08c379a0000000000000000000000000000000000000000000000000000000008152600401610d4290611b3c565b60405180910390fd5b8060020154471015610d92576040517f08c379a0000000000000000000000000000000000000000000000000000000008152600401610d8990611ba8565b60405180910390fd5b60008160000160019054906101000a900473ffffffffffffffffffffffffffffffffffffffff1673ffffffffffffffffffffffffffffffffffffffff168260020154604051610de090611bf9565b60006040518083038185875af1925050503d8060008114610e1d576040519150601f19603f3d011682016040523d82523d6000602084013e610e22565b606091505b5050905080610e66576040517f08c379a0000000000000000000000000000000000000000000000000000000008152600401610e5d90611c5a565b60405180910390fd5b60008054906101000a900473ffffffffffffffffffffffffffffffffffffffff1673ffffffffffffffffffffffffffffffffffffffff166323b872dd8360000160019054906101000a900473ffffffffffffffffffffffffffffffffffffffff168460010160009054906101000a900473ffffffffffffffffffffffffffffffffffffffff16866040518463ffffffff1660e01b8152600401610f0b93929190611cd9565b600060405180830381600087803b158015610f2557600080fd5b505af1158015610f39573d6000803e3d6000fd5b5050505060008260000160006101000a81548160ff0219169083151502179055508160010160009054906101000a900473ffffffffffffffffffffffffffffffffffffffff1673ffffffffffffffffffffffffffffffffffffffff168260000160019054906101000a900473ffffffffffffffffffffffffffffffffffffffff1673ffffffffffffffffffffffffffffffffffffffff16847f919175c0e63a4ad406b2acbddd99db66956bff415bae4ec71dfe32eb56d10051856002015442604051611006929190611d10565b60405180910390a4505050565b600260009054906101000a900473ffffffffffffffffffffffffffffffffffffffff1681565b60046020528060005260406000206000915090508060000160009054906101000a900460ff16908060000160019054906101000a900473ffffffffffffffffffffffffffffffffffffffff16908060010160009054906101000a900473ffffffffffffffffffffffffffffffffffffffff16908060020154908060030154908060040160009054906101000a900460ff16908060040160019054906101000a900460ff16908060040160029054906101000a900460ff16908060040160039054906101000a900460ff16905089565b60006004600083815260200190815260200160002090508060000160009054906101000a900460ff16611170576040517f08c379a0000000000000000000000000000000000000000000000000000000008152600401611167906115c0565b60405180910390fd5b600073ffffffffffffffffffffffffffffffffffffffff168160010160009054906101000a900473ffffffffffffffffffffffffffffffffffffffff1673ffffffffffffffffffffffffffffffffffffffff1614611203576040517f08c379a00000000000000000000000000000000000000000000000000000000081526004016111fa90611d85565b60405180910390fd5b806003015434101561124a576040517f08c379a000000000000000000000000000000000000000000000000000000000815260040161124190611df1565b60405180910390fd5b338160010160006101000a81548173ffffffffffffffffffffffffffffffffffffffff021916908373ffffffffffffffffffffffffffffffffffffffff1602179055503373ffffffffffffffffffffffffffffffffffffffff16827fba7090fc741268e9993ebd5e9fb391b13b5e4c7a58ad12421aa0fa7e2d61b9f034426040516112d6929190611d10565b60405180910390a35050565b600160009054906101000a900473ffffffffffffffffffffffffffffffffffffffff1681565b600080fd5b6000819050919050565b6113208161130d565b811461132b57600080fd5b50565b60008135905061133d81611317565b92915050565b60006020828403121561135957611358611308565b5b60006113678482850161132e565b91505092915050565b60008060006060848603121561138957611388611308565b5b60006113978682870161132e565b93505060206113a88682870161132e565b92505060406113b98682870161132e565b9150509250925092565b600073ffffffffffffffffffffffffffffffffffffffff82169050919050565b60006113ee826113c3565b9050919050565b6113fe816113e3565b82525050565b600060208201905061141960008301846113f5565b92915050565b60008115159050919050565b6114348161141f565b811461143f57600080fd5b50565b6000813590506114518161142b565b92915050565b6000806040838503121561146e5761146d611308565b5b600061147c8582860161132e565b925050602061148d85828601611442565b9150509250929050565b6114a08161141f565b82525050565b60006114b1826113c3565b9050919050565b6114c1816114a6565b82525050565b6114d08161130d565b82525050565b6000610120820190506114ec600083018c611497565b6114f9602083018b6114b8565b611506604083018a6114b8565b61151360608301896114c7565b61152060808301886114c7565b61152d60a0830187611497565b61153a60c0830186611497565b61154760e0830185611497565b611555610100830184611497565b9a9950505050505050505050565b600082825260208201905092915050565b7f50726f7065727479206e6f74206c697374656400000000000000000000000000600082015250565b60006115aa601383611563565b91506115b582611574565b602082019050919050565b600060208201905081810360008301526115d98161159d565b9050919050565b7f4e6f7420617574686f72697a656420746f20617070726f76652073616c650000600082015250565b6000611616601e83611563565b9150611621826115e0565b602082019050919050565b6000602082019050818103600083015261164581611609565b9050919050565b60006060820190506116616000830186611497565b61166e6020830185611497565b61167b60408301846114c7565b949350505050565b7f5072696365206d7573742062652067726561746572207468616e203000000000600082015250565b60006116b9601c83611563565b91506116c482611683565b602082019050919050565b600060208201905081810360008301526116e8816116ac565b9050919050565b7f457363726f7720616d6f756e74206d757374206265206772656174657220746860008201527f616e203000000000000000000000000000000000000000000000000000000000602082015250565b600061174b602483611563565b9150611756826116ef565b604082019050919050565b6000602082019050818103600083015261177a8161173e565b9050919050565b600060608201905061179660008301866114c7565b6117a360208301856114c7565b6117b060408301846114c7565b949350505050565b7f4f6e6c7920676f7665726e6d656e742063616e20766572696679000000000000600082015250565b60006117ee601a83611563565b91506117f9826117b8565b602082019050919050565b6000602082019050818103600083015261181d816117e1565b9050919050565b600060208201905061183960008301846114c7565b92915050565b7f4f6e6c7920696e73706563746f722063616e2075706461746520737461747573600082015250565b6000611875602083611563565b91506118808261183f565b602082019050919050565b600060208201905081810360008301526118a481611868565b9050919050565b60006040820190506118c06000830185611497565b6118cd60208301846114c7565b9392505050565b7f4f6e6c792073656c6c65722063616e2066696e616c697a652073616c65000000600082015250565b600061190a601d83611563565b9150611915826118d4565b602082019050919050565b60006020820190508181036000830152611939816118fd565b9050919050565b7f427579657220686173206e6f74206465706f73697465642066756e6473000000600082015250565b6000611976601d83611563565b915061198182611940565b602082019050919050565b600060208201905081810360008301526119a581611969565b9050919050565b7f496e7370656374696f6e206661696c6564000000000000000000000000000000600082015250565b60006119e2601183611563565b91506119ed826119ac565b602082019050919050565b60006020820190508181036000830152611a11816119d5565b9050919050565b7f4c656e646572206e6f7420617070726f76656400000000000000000000000000600082015250565b6000611a4e601383611563565b9150611a5982611a18565b602082019050919050565b60006020820190508181036000830152611a7d81611a41565b9050919050565b7f476f7665726e6d656e7420766572696669636174696f6e206d697373696e6700600082015250565b6000611aba601f83611563565b9150611ac582611a84565b602082019050919050565b60006020820190508181036000830152611ae981611aad565b9050919050565b7f53656c6c6572206e6f7420617070726f76656400000000000000000000000000600082015250565b6000611b26601383611563565b9150611b3182611af0565b602082019050919050565b60006020820190508181036000830152611b5581611b19565b9050919050565b7f496e73756666696369656e742066756e64730000000000000000000000000000600082015250565b6000611b92601283611563565b9150611b9d82611b5c565b602082019050919050565b60006020820190508181036000830152611bc181611b85565b9050919050565b600081905092915050565b50565b6000611be3600083611bc8565b9150611bee82611bd3565b600082019050919050565b6000611c0482611bd6565b9150819050919050565b7f5472616e73666572206661696c65640000000000000000000000000000000000600082015250565b6000611c44600f83611563565b9150611c4f82611c0e565b602082019050919050565b60006020820190508181036000830152611c7381611c37565b9050919050565b6000819050919050565b6000611c9f611c9a611c95846113c3565b611c7a565b6113c3565b9050919050565b6000611cb182611c84565b9050919050565b6000611cc382611ca6565b9050919050565b611cd381611cb8565b82525050565b6000606082019050611cee6000830186611cca565b611cfb6020830185611cca565b611d0860408301846114c7565b949350505050565b6000604082019050611d2560008301856114c7565b611d3260208301846114c7565b9392505050565b7f427579657220616c72656164792061737369676e656400000000000000000000600082015250565b6000611d6f601683611563565b9150611d7a82611d39565b602082019050919050565b60006020820190508181036000830152611d9e81611d62565b9050919050565b7f4e6f7420656e6f756768206561726e657374206d6f6e65790000000000000000600082015250565b6000611ddb601883611563565b9150611de682611da5565b602082019050919050565b60006020820190508181036000830152611e0a81611dce565b905091905056fea26469706673582212205555129b5effe14a987ca6c3249596ef46ca50801d16f86b46e3e25d8c045e8264736f6c634300081c0033",
  "linkReferences": {},
  "deployedLinkReferences": {}
}